:020000040800F2
:1000000028AF002009330008790300087B030008AB
:100010007F03000883030008870300080000000036
:100020000000000000000000000000008B0300083A
:100030008D03000800000000F3FD0008CD5B000800
:100040002333000823330008233300082333000838
:100050002333000823330008233300082333000828
:100060002333000823330008233300082333000818
:100070002333000823330008233300082333000808
:1000800023330008233300082333000823330008F8
:1000900023330008790900082333000823330008BC
:1000A00023330008233300082333000823330008D8
:1000B0000B320008233300082732000823330008DE
:1000C00023330008233300082333000823330008B8
:1000D00023330008233300082333000823330008A8
:1000E0002333000823330008233300082333000898
:1000F0002333000823330008233300082333000888
:100100002333000823330008A732000823330008F4
:100110002333000823330008CB3200087F2E000869
:100120002333000823330008233300082333000857
:100130002333000823330008233300082333000847
:10014000B30A0008233300082333000823330008D0
:100150002333000803620008233300082B5F0008E4
:100160002333000823330008233300082333000817
:100170002333000823330008233300082333000807
:10018000233300082333000800F002F800F05CF885
:100190000AA090E8000C82448344AAF10107DA45E2
:1001A00001D100F051F8AFF2090EBAE80F0013F0D8
:1001B000010F18BFFB1A43F001031847600001004C
:1001C000800001000A444FF0000C10F8013B13F0CE
:1001D000070408BF10F8014B1D1108BF10F8015BA0
:1001E000641E05D010F8016B641E01F8016BF9D193
:1001F00013F0080F1EBF10F8014BAD1C0C1B09D1EA
:100200006D1E58BF01F801CBFAD505E014F8016B5B
:1002100001F8016B6D1EF9D59142D6D370470000ED
:100220000023002400250026103A28BF78C1FBD8FF
:10023000520728BF30C148BF0B6070471FB50FF091
:1002400013FE1FBD10B510BD0FF086FD1146FFF760
:10025000F5FF00F009F80FF0A4FD03B4FFF7F2FF7B
:1002600003BC05F045FD00008AB00024A82005F07D
:10027000B9FC4FF4A06003F067F80020022340F2BD
:10028000255201460090334805F03FFD00F05EFA2C
:1002900009A807F04FFE00BF00BF00BF06F0B0F98D
:1002A000044600BF00BF2C480078401C2A49087053
:1002B00000BF00BF204606F0A7F900BF00BF00BF87
:1002C00009A8032100220592CDE9062108901046D5
:1002D00080210C22214BCDE90132CDE9031003200E
:1002E00000231F4A1FA1009021480CF095FB00BF7E
:1002F00000BF00BF06F084F9044600BF00BF1648E7
:100300000078401E1449087008460078A0B91948C2
:100310000088002809DD00BF00BF204606F074F900
:1003200000BF00BF08F018FC0DE000BF00BF204672
:1003300006F06AF900BF06E000BF00BF204606F0E5
:1003400063F900BF00BF00BF09A808F0BCF800BFF8
:10035000FEE7000000100140C003002070060020EE
:10036000EB050008437265617465207461736B006E
:100370002404002084030020704700BFFEE700BF74
:10038000FEE700BFFEE700BFFEE7704770470000D2
:100390000CB50020019000907648006840F4803051
:1003A0007449086000BF7348006800F40030009092
:1003B0000198401C0190009818B90198B0F5A04F21
:1003C000F1D16C48006800F4003010B101200090B9
:1003D00001E0002000900098012846D16548403097
:1003E000006840F08050634940310860624800680E
:1003F00040F44040604908605E48083000685D494C
:10040000083108600846006840F40040086008466B
:10041000006840F4A05008605848091F0860081F91
:10042000006840F08070091F086000BF51480068F4
:1004300000F000700028F9D040F2057050490860C3
:100440004C480830006820F003004A490831086031
:100450000846006840F00200086000BF45480830C8
:10046000006800F00C000828F8D10CBD10B5454814
:10047000006840F47000434908603E48006840F05E
:1004800001003C49086000203A49083108603948B9
:1004900000683D490840374908603C48091D08602C
:1004A000081F006820F48020091F086000203149DF
:1004B0000C310860FFF76CFF4FF000603149803964
:1004C000086010BD70B50020002202230024022124
:1004D000284D08352D6805F00C0020B1042806D001
:1004E000082834D107E02A4D2A4E356033E02A4DE2
:1004F000284E35602FE01F4D2D1D2D68C5F380540B
:100500001C4D2D1D2D6805F03F0154B1224DB5FB4A
:10051000F1F5184E361D3668C6F3881605FB06F24F
:1005200009E01B4DB5FBF1F5124E361D3668C6F3DA
:10053000881605FB06F20F4D2D1D2D68C5F30145EC
:100540006D1C6B00B2FBF3F5124E356003E0104DED
:10055000104E356000BF00BF064D08352D68C5F34D
:1005600003150E4E705D0B4D2D68C540094E35606C
:1005700070BD000000380240007000400854400781
:10058000003C024088ED00E0FFFFF6FE1030002442
:100590000024F4000000002000127A000400002073
:1005A00008B5594800231A461946009057480BF0E1
:1005B000FFFA02E0052005F06EFBFBE708B55248A4
:1005C00000231A461946009050480BF0F1FA0FF03C
:1005D00012FA4D4A00214D480BF027FD04E00FF0C0
:1005E0004FFA0A2005F057FBF9E730B58BB0044607
:1005F000002500BF05F0CCFE0AA80BF036FE0AAAC3
:100600000121084607F0BFFE00BF00BF00BF05F094
:10061000F7FF054600BF00BF3D480078401C3C493D
:10062000087000BF00BF284605F0EEFF00BF00BF06
:1006300000BF0AA8032100220592CDE906210890F7
:1006400010464FF40061CC22324BCDE90132CDE9A6
:10065000031004200023AFF29B022FA10090314829
:100660000CF0DAF90AA8032100220592CDE906214F
:10067000089010464FF40061CC222B4BCDE901329B
:10068000CDE9031005200023AFF2EB0227A1009073
:1006900029480CF0C1F90AAB012228A11B480BF034
:1006A00058F900BF00BF00BF05F0AAFF054600BF14
:1006B00000BF17480078401E1549087008460078AA
:1006C000A0B921480088002809DD00BF00BF2846E6
:1006D00005F09AFF00BF00BF08F03EFA0DE000BF32
:1006E00000BF284605F090FF00BF06E000BF00BF36
:1006F000284605F089FF00BF00BF00BF0AA90020FF
:100700000CF0DEFA0BB030BD140000207048002061
:10071000C003002070080020436865636B2074618B
:10072000736B0000E8040020702800204C6F6F708D
:10073000207461736B000000AC0500204D4F5645DE
:100740005F53454D00000000840300201CB50121CB
:10075000402003F08DF94FF46040009001208DF8A7
:10076000040000208DF8060003208DF8050001200C
:100770008DF807006946044802F0DCFE4FF4604142
:10078000014802F053FF1CBD0018024000B58BB0B9
:100790000121022003F06CF90121480603F0B1F9B0
:1007A0004FF44070099002208DF8280000208DF849
:1007B0002A0003208DF8290001208DF82B0009A9BB
:1007C000E14802F0B7FE09220821DF4802F03DFFB0
:1007D00009221146DC4802F038FF00208DF81E0087
:1007E0008DF81F008DF820008DF821008DF8220073
:1007F00001208DF8230000208DF81A008DF81B00D1
:1008000008208DF81C0003208DF81D00ADF818009D
:1008100006A9CE4803F0C3FC0E208DF8120000207C
:100820008DF8130001208DF814000020ADF80800A9
:10083000ADF80A00ADF80C00ADF80E00ADF81000F0
:1008400001208DF8150002A803F033FD01220221DA
:10085000BE4804F02DF814208DF8040001208DF816
:10086000050000208DF8060001208DF8070001A882
:1008700002F06FFD00200BB000BD00B58BB0012170
:10088000022003F0F5F80121880603F03AF94FF44D
:100890004050099002208DF8280000208DF82A0091
:1008A00003208DF8290001208DF82B0009A9A64806
:1008B00002F040FE09220C21A34802F0C6FE0922E4
:1008C0000D21A14802F0C1FEA14803F04FFC06A88B
:1008D00003F070FD00208DF81E008DF81F008DF8CC
:1008E00020008DF821008DF8220001208DF82300D2
:1008F00000208DF81A008DF81B0008208DF81C00D0
:1009000003208DF81D00ADF8180006A9904803F0EB
:1009100046FC0E208DF8120000208DF813000120F7
:100920008DF81400A020ADF808000020ADF80A00F2
:10093000E020ADF80C000020ADF80E00ADF810007E
:1009400001208DF8150002A803F0B3FC012202215A
:100950007F4803F0ADFF40208DF8040002208DF8A1
:10096000050000208DF8060001208DF8070001A881
:1009700002F0EFFC0BB000BD10B507F071FB754A3B
:100980000021724803F079FE7248007800F00F00F1
:10099000401E012101FA00F06F49096808436E49C1
:1009A00008606C480068B0F5207F09D96948006884
:1009B000B0F5247F04D800206849487001204873AE
:1009C00064480068B0F5007F13D962480068B0F54C
:1009D000027F0ED25F4908680B3100F057FB5D497A
:1009E000087800F09EFB00205C4988700120887325
:1009F00004E00020594948700120487307F041FB8A
:100A000010BD2DE9F04186B080460D461646002403
:100A10000196534806701220029000208DF80C00B9
:100A20008DF80D008DF80E5000BF06E018F8041088
:100A30000DF10F000155601C84B2AC42F6DB01A938
:100A4000424803F025FD0746002401E0601C84B203
:100A500039463E4803F0B4FD18B940F6FF708442B1
:100A6000F4DB40F6FF70844203DB012006B0BDE8F2
:100A7000F0810020FAE730B585B005460021334803
:100A800003F07EFE10B9002005B030BD6A4600219B
:100A90002E4803F0F2FD002404E00DF10B00005D90
:100AA0002855641C9DF80A00A042F6D89DF80A005B
:100AB000EAE710B507F0D4FA2A4A0021244803F0E7
:100AC000DCFD2848006855280DD006DC152821D00B
:100AD000252820D0452831D11EE0652814D0A0F269
:100AE000057058BB1BE000BFBFF34F8F1E48006866
:100AF00000F4E0601D490843001D1B490860BFF376
:100B00004F8F00BF00BFFEE700201449087001208E
:100B1000087314E013E012E00EF06DFF0FE01148CF
:100B2000C07AFF2802D101200C49C8730D48007B10
:100B3000FF2802D101200949087400E000BF00BF6E
:100B400007F09FFA10BD000000040240006400405E
:100B5000006800409848002030030020ACA8002026
:100B600016000020AC4800200CED00E00000FA0563
:100B700070B505460C46012C24DB082C22DCFE480F
:100B8000854201DC054604E042F21070854200DB3C
:100B90000546042C02DC4FF4007603E040F2FF1619
:100BA000201FC4B2C5F307216000801EF34A115410
:100BB0006000401E1554F2B20821F048FFF721FFF3
:100BC000002070BD0120FCE710B5014600204A1E40
:100BD00002EB4202EA4B03EB420292780123B3EBB1
:100BE000E21F13D14A1E02EB4202E54B03EB420225
:100BF000D3784A1E02EB4202E14C04EB42029278A7
:100C000003EB0222A2F57F40FF380FE04A1E02EB01
:100C10004202DB4B03EB4202D3784A1E02EB420254
:100C2000D74C04EB4202927803EB022010BD70B562
:100C300006460D46681EC4B204EB4400D14901EBE0
:100C40000010006804EB4401CE4A02EB0111486039
:100C5000E8B2FFF7B9FF301A04EB4401C94A02EBCE
:100C60000111086004EB4400114601EB001080689C
:100C700004EB440102EB01110968084404EB440150
:100C800002EB0111886004EB4400114601EB0010F7
:100C90008068B0F57A7F02DB4FF47A7010E004EBE5
:100CA0004400B84901EB0010806810F57A7F01DC40
:100CB000B54805E004EB4400B24901EB0010806840
:100CC00004EB4401AF4A02EB0111886004EB4400DD
:100CD000114601EB0010D0ED030A04EB440001EBD8
:100CE000001090ED000AB8EEC00A20EE800A04EB76
:100CF000440001EB001080ED080A04EB440001EB16
:100D00000010D0ED040A04EB440001EB001090ED5C
:100D1000020AB8EEC00A20EE800A04EB440001EBA0
:100D2000001080ED090A04EB440001EB001000689C
:100D300004EB440102EB01114968401A00EE100A6D
:100D4000B8EEC00A04EB4400114601EB0010D0EDF0
:100D5000050A20EE200A04EB440001EB001080EDB0
:100D60000A0A04EB440001EB001090ED080A04EBC2
:100D7000440001EB0010D0ED090A30EE200A04EB2C
:100D8000440001EB0010D0ED0A0A30EE200A04EB1B
:100D9000440001EB001080ED0B0A04EB440001EB72
:100DA0000010D0ED0B0A04EB440001EB001090EDB5
:100DB000060AB8EEC00AF4EEC00AF1EE10FA08DB3B
:100DC00004EB440001EB001090ED060AB8EEC00AF7
:100DD00023E004EB44006B4901EB0010D0ED0B0A5B
:100DE00004EB440001EB001090ED070AB8EEC00AD6
:100DF000F4EEC00AF1EE10FA08D804EB440001EB5F
:100E0000001090ED070AB8EEC00A06E004EB4400BB
:100E10005C4901EB001090ED0B0A04EB44005949CA
:100E200001EB001080ED0B0AE9B204EB4402554BD4
:100E300003EB021292ED0B0ABDEEC00A10EE100A8F
:100E4000FFF796FE70BD0146481E504A52F820003A
:100E5000704770B506460D46681EC4B204EB4400E8
:100E60004B4901EB0010006804EB4401484A02EBD7
:100E700001114860E8B2FFF7E6FF301A04EB4401C5
:100E8000434A02EB0111086004EB4400114601EBF8
:100E90000010806804EB440102EB0111096808446A
:100EA00004EB440102EB0111886004EB440011469D
:100EB00001EB0010806844F62061884201DB08469F
:100EC00010E004EB4400324901EB00108068314926
:100ED000884201DC084605E004EB44002C4901EBA4
:100EE0000010806804EB4401294A02EB011188607C
:100EF00004EB4400114601EB0010D0ED030A04EBB3
:100F0000440001EB001090ED000AB8EEC00A20EE9C
:100F1000800A04EB440001EB001080ED080A04EBAA
:100F2000440001EB0010D0ED040A04EB440001EB97
:100F3000001090ED020AB8EEC00A20EE800A04EB21
:100F4000440001EB001080ED090A04EB440001EBC2
:100F50000010006804EB440102EB01114968401ADB
:100F600000EE100AB8EEC00A04EB4400114601EB93
:100F70000010D0ED050A0FE0F0D8FFFF18030020A5
:100F8000C04800201800002018FCFFFFF048002097
:100F900098010020E0B1FFFF20EE200A04EB44009E
:100FA00001EB001080ED0A0A04EB440001EB001095
:100FB00090ED080A04EB440001EB0010D0ED090AA3
:100FC00030EE200A04EB440001EB0010D0ED0A0AD9
:100FD00030EE200A04EB440001EB001080ED0B0A18
:100FE00004EB440001EB0010D0ED0B0A04EB4400CD
:100FF00001EB001090ED060AB8EEC00AF4EEC00A4C
:10100000F1EE10FA08DB04EB440001EB001090ED68
:10101000060AB8EEC00A23E004EB4400654901EB80
:101020000010D0ED0B0A04EB440001EB001090ED32
:10103000070AB8EEC00AF4EEC00AF1EE10FA08D8BA
:1010400004EB440001EB001090ED070AB8EEC00A73
:1010500006E004EB4400574901EB001090ED0B0A49
:1010600004EB4400534901EB001080ED0B0A04EB44
:101070004401504A02EB011191ED0B0ABDEEC00A8A
:1010800010EE100A2946FFF7D2FD70BD10B50246DA
:1010900001200FE000F5007393420AD1431E03EBD9
:1010A0004303454C04EB43030C681C608C889C8014
:1010B00010BD401C0928EDDB00BFF9E710B5014663
:1010C00000204A1E02EB42023B4B03EB42029278A5
:1010D0000123B3EBE21F13D14A1E02EB4202364B4F
:1010E00003EB420253794A1E02EB4202324C04EBFC
:1010F0004202127903EB0222A2F57F40FF380FE093
:101100004A1E02EB42022C4B03EB420253794A1E69
:1011100002EB4202284C04EB4202127903EB02205C
:1011200010BD10B588B00146481E00EB4002224BAE
:1011300003EB4202527800EB40031F4C14F81330CB
:1011400002EB03224DF820205DF820201B4B53F8C2
:101150002030D21AB2F5805F09DB194A52F82020FC
:10116000A2F5F852FF3A164B43F8202011E05DF843
:101170002020124B53F82030D21A12F5805F08DC81
:101180000F4A52F8202041F6FF731A440C4B43F8E3
:1011900020205DF82020094B43F82020084A52F80F
:1011A00020205DF820301A44064B43F8202008B078
:1011B00010BD000098010020C048002030490020E8
:1011C00010490020F048002030B502461378092B62
:1011D0002AD2DFE803F005090D1115191D2125009C
:1011E000F84BF94C23601FE0F84BF74C23601BE0F1
:1011F000F74BF54C236017E0F64BF34C236013E0FC
:10120000F54BF14C23600FE0F44BEF4C23600BE007
:10121000F34BED4C236007E0F24BEB4C236003E013
:10122000F14BE94C236000BF00BFE74B1B685B88B4
:101230005B1C98B2962800DB0020E34B1B685B88A0
:10124000834200D130BD40F22914DF4B1B685B881C
:1012500003EB4305DC4B1B681B1D23F825400124D1
:10126000D94B1B685B8803EB4305D74B1B681B1DE1
:1012700003EB85039C70D44B1B685B8803EB430432
:10128000D14B1B681B1D03EB8403D970CE4B1B682D
:101290005B885B1CCC4C24686380CB4B1B685B88F1
:1012A000962B03DB0023C84C2468638000BFC9E78A
:1012B000F0B51546059C0678092E2AD2DFE806F01F
:1012C00005090D1115191D212500BE4EBE4F3E60AA
:1012D0001FE0BE4EBC4F3E601BE0BD4EBA4F3E60AD
:1012E00017E0BC4EB84F3E6013E0BB4EB64F3E60B9
:1012F0000FE0BA4EB44F3E600BE0B94EB24F3E60C5
:1013000007E0B84EB04F3E6003E0B74EAE4F3E60D0
:1013100000BF00BFAC4E36687688761CB2B2962A03
:1013200000DB0022A84E36683688964200D1F0BD18
:10133000067806F54076A44F3F687F8807EB470C98
:10134000A14F3F683F1D27F82C6008279E4E366846
:10135000768806EB460C9C4E3668361D06EB8C06EE
:10136000B77011F8017B984E3668768806EB460C0C
:10137000954E3668361D06EB8C06F7700F78924E48
:101380003668768806EB460C8F4E3668361D06EBBF
:101390008C0637718C4E3668768806EB46078A4E87
:1013A0003668361D06EB87067571DE07370E864EEA
:1013B0003668768806EB460C834E3668361D06EB9B
:1013C0008C06B771804E3668768806EB460C7E4EEA
:1013D0003668361D06EB8C06F471270A7A4E36689D
:1013E000768806EB460C784E3668361D06EB8C0682
:1013F0003772270C744E3668768806EB460C724EB0
:101400003668361D06EB8C067772270E6E4E3668F0
:10141000768806EB460C6C4E3668361D06EB8C065D
:10142000B772694E36687688761C674F3F687E8053
:10143000654E36687688962E03DB0026624F3F683D
:101440007E8000BF73E730B50A460378092B2AD2A5
:10145000DFE803F005090D1115191D212500594B71
:10146000594C23601FE0594B574C23601BE0584BED
:10147000554C236017E0574B534C236013E0564BF9
:10148000514C23600FE0554B4F4C23600BE0544B05
:101490004D4C236007E0534B4B4C236003E0524B11
:1014A000494C236000BF00BF474B1B685B885B1C37
:1014B00099B2962900DB0021434B1B681B888B42A5
:1014C00000D130BD0024404B1B685B8803EB430513
:1014D0003D4B1B681B1D23F8254002243A4B1B681B
:1014E0005B8803EB4305384B1B681B1D03EB85032F
:1014F0009C70354B1B685B8803EB4304324B1B68C5
:101500001B1D03EB8403DA7004782F4B1B685B8888
:1015100003EB43052C4B1B681B1D03EB85031C7160
:10152000294B1B685B885B1C274C24686380264B17
:101530001B685B88962B03DB0023234C24686380A5
:1015400000BFBEE7F0B514460578092D2AD2DFE8C2
:1015500005F005090D1115191D212500194D1A4E0B
:1015600035601FE0194D184E35601BE0184D164EC2
:10157000356017E0174D144E356013E0164D124ECE
:1015800035600FE0154D104E35600BE0144D0E4EDA
:10159000356007E0134D0C4E356003E0124D0A4EE6
:1015A000356000BF00BF084D2D686D886D1CAAB264
:1015B000962A00DB0022044D2D682D88954215D116
:1015C000F0BD000050490020200300205C500020A6
:1015D00068570020745E0020806500208C6C00201D
:1015E00098730020A47A0020B0810020057805F5CA
:1015F000C065FE4E3668768806EB4607FB4E3668B9
:10160000361D26F827500826F84D2D686D8805EB05
:101610004507F64D2D682D1D05EB8705AE7022267A
:10162000F24D2D686D8805EB4507F04D2D682D1D99
:1016300005EB8705EE70ED4D2D686D8805EB4507D0
:10164000EA4D2D682D1D05EB870529710E0AE74D22
:101650002D686D8805EB4507E44D2D682D1D05EBC4
:1016600087056E71E14D2D686D8805EB4506DF4DF0
:101670002D682D1D05EB8605AC71DC4D2D686D8840
:1016800005EB4507D94D2D682D1D05EB8705EB7141
:101690001E0AD64D2D686D8805EB4507D34D2D6884
:1016A0002D1D05EB87052E721E0CD04D2D686D8803
:1016B00005EB4507CD4D2D682D1D05EB87056E7299
:1016C0001E0ECA4D2D686D8805EB4507C74D2D6868
:1016D0002D1D05EB8705AE72C44D2D686D886D1C00
:1016E000C24E36687580C14D2D686D88962D03DB1E
:1016F0000025BE4E3668758000BF61E710B5002139
:1017000007E04AF26C2200BF131EA2F10102FBD1D6
:10171000491C8142F5D310BD10B543F6FF7400BFDC
:1017200000BF601E041EFBD1B148007801280BD118
:1017300000220121AF4804F033F90021AD4803F045
:1017400017FD4FF0004010BD4FF4FA70FFF7D6FFC1
:1017500002E0A9480068F6E7A7480078FF28F8D11A
:101760000020F0E710B5044600241221A3480EF033
:1017700096FAA3480021018000202080608010BDDF
:1017800010B5A048FFF7EEFF9F48FFF7EBFF9F481B
:10179000FFF7E8FF9E48FFF7E5FF9E48FFF7E2FFEF
:1017A0009D48FFF7DFFF9D48FFF7DCFF9C48FFF7F0
:1017B000D9FF9C48FFF7D6FF10BD7FB505460C4604
:1017C0000121202002F09DF937208DF800008DF8CE
:1017D00001508DF8024001208DF80300684601F0A9
:1017E000B8FD40F2473002900920ADF80400002017
:1017F000ADF80C00ADF806008DF80E0001A97D488B
:1018000003F02DFC012211467A4804F0C9F80121A9
:10181000784804F0D9F80121764803F0A9FC7FBD8F
:101820002DE9F84380460D46164600240027314630
:101830002846FFF7C2FFFFF7A3FF00BF04E06F4891
:1018400000F81440601CC4B2082CF8DD40206C493C
:10185000087001240DE0694901EB44008221FFF783
:10186000F2FD664901EB44003221FFF7ADFC601C3C
:10187000C4B2082CEFDDFFF74FFF0746B0F1004F71
:1018800002D13846BDE8F88300231A464FF4D05100
:101890005A48FFF757FE96215848FFF795FC00235A
:1018A0001A4641F601215548FFF74CFE9621534850
:1018B000FFF78AFC28215148FFF786FC01214F4899
:1018C000FFF7C1FD28214D48FFF77EFC00200346AD
:1018D000024655A100904948FFF7EAFC50214748CD
:1018E000FFF772FC012000231A4650A100904348E4
:1018F000FFF7DEFC28214148FFF766FC4C48002337
:101900001A464CA100903D48FFF7D2FC28213B48E5
:10191000FFF75AFC464800231A4647A10090374873
:10192000FFF7C6FC28213548FFF74EFC02200023B4
:101930001A4642A100903148FFF7BAFC28212F48EF
:10194000FFF742FC02202E494870002406E00220E6
:101950002A4901EB44014870601CC4B2082CF6DD32
:10196000012000231A4630A100902448FFF7A0FC74
:10197000FA212248FFF728FCFA212048FFF724FC2F
:1019800032211E48FFF720FC38467BE710B58AB0AD
:1019900004462B48844271D12A4908600121084637
:1019A00002F066F80121480602F0ABF84FF4C0508F
:1019B000089002208DF8240000208DF826000120D8
:1019C0008DF8270008A9204801F0B4FD09220B2159
:1019D0001D4801F03AFE09220C211B4801F035FE9A
:1019E00000208DF80E008DF80F002FE0200300205E
:1019F0002C0300200014004030030020BC8800208D
:101A000024030020504900205C500020685700202B
:101A1000745E0020806500208C6C0020987300208C
:101A2000A47A0020B08100204D4F0000504D0000EE
:101A3000809698004143000044430000554D00004B
:101A400000640040280300200000024001208DF8BF
:101A500010000020ADF80400ADF80600ADF8080055
:101A60000620ADF80A000020ADF80C0001208DF82A
:101A7000110001A802F01DFC28E0FFE7F8488442AD
:101A800024D1F84908600121022001F0F1FF012171
:101A90004FF0C06002F035F84FF44050089002203B
:101AA0008DF8240000208DF8260001208DF82700F5
:101AB00008A9ED4801F03EFD09220D21EA4801F098
:101AC000C4FD09220C21E84801F0BFFD204602F0C8
:101AD0004DFB05A802F06EFC00208DF81A008DF871
:101AE0001B008DF81C008DF81D008DF81E000120D4
:101AF0008DF81F0000208DF816008DF817000820C3
:101B00008DF8180003208DF81900ADF8140005A910
:101B1000204602F044FB00208DF80E008DF80F00E7
:101B200001208DF810000020ADF80400ADF806008B
:101B3000ADF808000620ADF80A000020ADF80C0052
:101B400001208DF8110001A802F0B3FBC7488442C0
:101B500013D10122022102F0ABFE14208DF8000007
:101B600002208DF8010000208DF8020001208DF880
:101B70000300684601F0EDFB15E0B948844212D13C
:101B80000122022102F094FE40208DF8000008207E
:101B90008DF8010000208DF8020001208DF803006F
:101BA000684601F0D6FB0AB010BD2DE9F0410746AA
:101BB0000D46164600243846FFF7E8FE3146284613
:101BC000FFF7FBFDFFF7DCFD00BF04E0A84800F8CD
:101BD0001440601CC4B2082CF8DD4020A5490870F0
:101BE0000020BDE8F08138B50446A14901EB44006E
:101BF0008023002246F24001FFF7A4FC9C4901EB40
:101C000044001421FFF7E0FA994901EB4400022354
:101C1000002242F64171FFF795FC954901EB440023
:101C20001421FFF7D1FA924901EB44008221FFF71A
:101C30000AFC8F4901EB44001E21FFF7C5FA8C49CD
:101C400001EB44000121FFF7FEFB894901EB440051
:101C50001E21FFF7B9FA012000231A46AFF2342102
:101C600000908348FFF724FB814901EB44001421D5
:101C7000FFF7AAFA804800231A46AFF248210090E5
:101C80007B48FFF715FB7A4901EB44002821FFF759
:101C90009BFA794800231A46AFF2642100907448F9
:101CA000FFF706FB724901EB44002821FFF78CFA8D
:101CB00000206F49009001EB440000231A46AFF268
:101CC0009821FFF7F5FA6A4901EB44001E21FFF75E
:101CD0007BFA01206649009001EB440000231A467C
:101CE000AFF2BC21FFF7E4FA614901EB44003C216B
:101CF000FFF76AFA38BD2DED020B6946086802B09D
:101D0000704770B52DED028B82B00446B0EE408A6C
:101D10000025002C4CD1564800EB440040780128A7
:101D200046D0534800EB4400407880B10020504931
:101D3000009001EB440000231A46AFF21431FFF784
:101D4000B7FA4B4901EB44006421FFF73DFA01204B
:101D500048494870002506E00120454901EB45014E
:101D60004870681CC5B2082DF6DD0120404900907E
:101D700001EB440000231A46AFF24031FFF798FA16
:101D80003B4901EB44000A21FFF71EFA01203849C4
:101D9000009001EB440000231A46AFF27431FFF7C4
:101DA00087FA334901EB44001E21FFF70DFA6AE080
:101DB0002F4800EB44004078012864D02C4800EB09
:101DC0004400407880B100202949009001EB440094
:101DD00000231A46AFF2B031FFF76AFA244901EB4B
:101DE00044006421FFF7F0F90120214901EB44018F
:101DF00048701F49009001EB440000231A46AFF2DF
:101E0000C431FFF755FA1A4901EB44000A21FFF7E4
:101E1000DBF901201649009001EB440000231A462B
:101E2000AFF2FC31FFF744FA114901EB44001E21E7
:101E3000FFF7CAF9012523E00D4800EB4500417882
:101E40000B4A681C02EB40004078814203D101201C
:101E50001146487012E006200549487012E012E071
:101E60000068004028030020000402400064004095
:101E7000BC8800202403002040420F00681CC5B22B
:101E8000082DD9DB00BFB0EE480AFFF734FF064645
:101E9000F949009001EB440001230022F7A1FFF76C
:101EA00007FAF54901EB44000A21FFF78DF90020FC
:101EB00002B0BDEC028B70BD38B504460025002C85
:101EC0004CD1ED4800EB44004078022846D0EA4867
:101ED00000EB4400407880B10020E749009001EB1E
:101EE000440000231A46AFF2C041FFF7E1F9E2498E
:101EF00001EB44006421FFF767F90220E0494870D4
:101F0000002506E00220DC4901EB45014870681C11
:101F1000C5B2082DF6DD0220D749009001EB440040
:101F200000231A46AFF2EC41FFF7C2F9D24901EBA8
:101F300044000A21FFF748F90120CF49009001EB46
:101F4000440000231A46AFF22051FFF7B1F9CA4905
:101F500001EB44001E21FFF737F95BE0C64800EBB8
:101F600044004078022855D0C34800EB4400407834
:101F700080B10020C049009001EB440000231A46C4
:101F8000AFF25C51FFF794F9BB4901EB44006421C7
:101F9000FFF71AF90220B84901EB44014870B6492D
:101FA000009001EB440000231A46AFF27051FFF796
:101FB0007FF9B14901EB44000A21FFF705F901203F
:101FC000AD49009001EB440000231A46AFF2A8513E
:101FD000FFF76EF9A84901EB44001E21FFF7F4F862
:101FE000012514E0A44800EB45004178A24A681C92
:101FF00002EB40004078814203D102201146487034
:1020000003E006209C49487003E0681CC5B2082D17
:10201000E8DB00BF38BD30B50378092B2AD2DFE8F2
:1020200003F005090D1115191D212500954B964C3E
:1020300023601FE0954B944C23601BE0944B924C23
:10204000236017E0934B904C236013E0924B8E4C2F
:1020500023600FE0914B8C4C23600BE0904B8A4C3B
:10206000236007E08F4B884C236003E08E4B864C47
:10207000236000BF00BF844B1B685B885B1C9AB267
:10208000962A00DB0022804B1B681B88934200D1FC
:1020900030BD037803F540737B4C2468648804EBFF
:1020A0004405794C2468241D24F825300424764BFB
:1020B0001B685B8803EB4305734B1B681B1D03EB1D
:1020C00085039C7011F8014B6F4B1B685B8803EB19
:1020D00043056D4B1B681B1D03EB8503DC700C78FF
:1020E000694B1B685B8803EB4305674B1B681B1D33
:1020F00003EB85031C710024634B1B685B8803EBB7
:102100004305614B1B681B1D03EB85035C715E4B34
:102110001B685B8803EB43055B4B1B681B1D03EBD4
:1021200085039C71584B1B685B885B1C564C24686C
:102130006380554B1B685B88962B03DB0023524C56
:102140002468638000BFA3E7F8B504460E46002567
:10215000002C4CD1484800EB44004078022846D07F
:10216000454800EB4400407880B10020424900908F
:1021700001EB440000231A46AFF25471FFF798F8C0
:102180003D4901EB44006421FFF71EF802203C4961
:102190004870002506E00220374901EB45014870F0
:1021A000681CC5B2082DF6DD02203349009001EB12
:1021B000440000231A46AFF27C71FFF779F82E49EC
:1021C00001EB44000A21FEF7FFFF01202A4900909D
:1021D00001EB440000231A46AFF2B471FFF768F830
:1021E000254901EB44001E21FEF7EEFF76E0224870
:1021F00000EB44004078022870D01F4800EB4400F8
:10220000407880B100201C49009001EB440000237D
:102210001A46AFF2EC71FFF74BF8174901EB440097
:102220006421FEF7D1FF0220134901EB44014870FD
:102230001149009001EB440000231A46AFF6040157
:10224000FFF736F80C4901EB44000A21FEF7BCFF0A
:1022500001200949009001EB440000231A46AFF623
:102260003801FFF725F8044901EB44001E21FEF771
:10227000ABFF01252FE00000BC8800205443000084
:102280002403002050490020200300205C5000203F
:1022900068570020745E0020806500208C6C002050
:1022A00098730020A47A0020B0810020F84800EB49
:1022B00045004178F64A681C02EB400040788142B4
:1022C00003D102201146487003E00620F04948700F
:1022D00003E0681CC5B2082DE8DB00BFEC4901EB48
:1022E000440000231A46EBA10096FEF7E1FFE849FF
:1022F00001EB44000A21FEF767FFE54901EB4400CA
:10230000E5A1FFF788FEE24901EB44000A21FEF750
:102310005BFF0020F8BD2DE9F84F044688461546BE
:102320009946DDE90C7BDDE90A6AD94901EB4400F5
:1023300000231A46D7A1CDF80080FEF7B9FFD44993
:1023400001EB450000231A46D2A1CDF80090FEF71C
:10235000AFFFCF4901EB460000231A46CDA1CDF8CF
:1023600000A0FEF7A5FFCA4901EB470000231A466B
:10237000C8A1CDF800B0FEF79BFFC54901EB4400B2
:102380000A21FEF721FFC24901EB45000A21FEF7B1
:102390001BFFBF4901EB46000A21FEF715FFBC49B0
:1023A00001EB47000A21FEF70FFFB94901EB44009A
:1023B000B9A1FFF730FEB64901EB4500B6A1FFF722
:1023C0002AFEB34901EB4600B3A1FFF724FEB04952
:1023D00001EB4700B0A1FFF71EFEAD4901EB440041
:1023E0001421FEF7F1FEAA4901EB45001421FEF786
:1023F000EBFEA74901EB46001421FEF7E5FEA449D8
:1024000001EB47001421FEF7DFFEBDE8F88F2DE950
:10241000F84304460F46164698460025002C4CD13A
:102420009B4800EB44004078052846D0984800EBD4
:102430004400407880B100209549009001EB4400B1
:1024400000231A46AFF62021FEF732FF904901EB38
:1024500044005A21FEF7B8FE052090494870002537
:1024600006E005208A4901EB45014870681CC5B2A9
:10247000082DF6DD05208649009001EB440000237D
:102480001A46AFF64821FEF713FF814901EB4400DD
:102490001421FEF799FE01207D49009001EB4400D4
:1024A00000231A46AFF68021FEF702FF784901EBC0
:1024B00044001E21FEF788FE5BE0754800EB4400F7
:1024C0004078052855D0724800EB4400407880B130
:1024D00000206F49009001EB440000231A46AFF63C
:1024E000B821FEF7E5FE6A4901EB44005A21FEF7E8
:1024F0006BFE0520664901EB440148706449009079
:1025000001EB440000231A46AFF6D021FEF7D0FEBF
:102510005F4901EB4400C821FEF756FE01205C49EB
:10252000009001EB440000231A46AFF60431FEF799
:10253000BFFE574901EB44001E21FEF745FE012571
:1025400014E0534800EB45004178514A681C02EB07
:1025500040004078814203D105201146487003E0D5
:1025600006204B49487003E0681CC5B2082DE8DB23
:1025700000BF474901EB440000231A4648A10097D9
:10258000FEF796FE424901EB44001421FEF71CFEC3
:10259000B8F1000F0FD03E4901EB440000231A466A
:1025A00040A10096FEF784FE394901EB4400142156
:1025B000FEF70AFE0EE0364901EB440000231A46FE
:1025C00039A10096FEF774FE314901EB4400142155
:1025D000FEF7FAFD2E4901EB44002FA1FFF71BFD8A
:1025E0002B4901EB44000A21FEF7EEFD0020BDE877
:1025F000F88338B504460025FCB900202449009032
:1026000001EB440000231A46AFF6E431FEF750FE1A
:102610001F4901EB44006421FEF7D6FD00201F494D
:10262000487000BF06E00020194901EB45014870E1
:10263000681CC5B2082DF6DD3DE00020144900906D
:1026400001EB440000231A46AFF62441FEF730FEAA
:102650000F4901EB44006421FEF7B6FD00200C4950
:1026600001EB44014870012522E0094800EB4500D8
:102670004178074A681C02EB40004078814203D150
:1026800000201146487011E006200149487011E011
:10269000BC8800204A560000424700002403002066
:1026A000535000005041000050520000681CC5B259
:1026B000082DDADB00BF002038BD38B50446002500
:1026C000002C7CD1FE4800EB440040780628F8D16D
:1026D0000125C9E0FA4800EB4500407888B901209F
:1026E000F749009001EB450000231A46AFF6C841B8
:1026F000FEF7DEFDF24901EB44001E21FEF764FD0A
:10270000A4E0EF4800EB450040780128F8D1002014
:10271000EB49009001EB450000231A46AFF6F84163
:10272000FEF7C6FDE64901EB4500C821FEF74CFD6A
:10273000E34901EB4500C821FEF746FDE04901EB06
:102740004500C821FEF740FDDD4901EB4500C821E9
:10275000FEF73AFDDA4901EB4500C821FEF734FDEA
:10276000D74901EB4500C821FEF72EFDD44901EB06
:102770004500C821FEF728FDD14901EB4500C821DD
:10278000FEF722FDCE4901EB4500C821FEF71CFDF6
:10279000CB4901EB4500C821FEF716FDC84901EB06
:1027A0004500C821FEF710FDC54901EB4500C821D1
:1027B000FEF70AFDC24901EB4500C82100E070E0C8
:1027C000FEF702FD0220BE4901EB45014870BC49FD
:1027D000009001EB450000231A46AFF6A051FEF72A
:1027E00067FDB74901EB45000A21FEF7EDFC01202A
:1027F000B349009001EB450000231A46AFF6D851CB
:10280000FEF756FDAE4901EB45001E21FEF7DCFC4C
:102810000020AB49009001EB450000231A46AFF2BF
:102820008C11FEF745FDA64901EB45000A21FEF794
:10283000CBFCA34901EB4500AFF2A411FFF7EBFB82
:102840009F4901EB45000A21FEF7BEFC9C4901EBC4
:1028500045009CA1FFF7DFFB994901EB45000A21E8
:10286000FEF7B2FC681CC5B2082D7FF733AF012517
:1028700014E0934800EB45004178914A681C02EB54
:1028800040004078814203D102201146487003E0A5
:1028900006208B49487003E0681CC5B2082DE8DBB0
:1028A000BCE1002C7DD1864800EB4400407806282E
:1028B00077D0834800EB4400407888B901208049F4
:1028C000009001EB440000231A46AFF6A461FEF726
:1028D000EFFC7B4901EB44001E21FEF775FCAAE0EA
:1028E000774800EB440040780128F8D10020744973
:1028F000009001EB440000231A46AFF6D461FEF7C6
:10290000D7FC6F4901EB4400C821FEF75DFC6C4920
:1029100001EB4400C821FEF757FC694901EB440074
:10292000C821FEF751FC664901EB4400C821FEF7BF
:102930004BFC634901EB4400C821FEF745FC6049AC
:1029400001EB4400C821FEF73FFC5D4901EB440068
:10295000C821FEF739FC5A4901EB4400C821FEF7B3
:1029600033FC574901EB4400C821FEF72DFC5449C4
:1029700001EB4400C821FEF727FC514901EB44005C
:10298000C821FEF721FC4E4901EB4400C821FEF7A7
:102990001BFC4B4901EB4400C821FEF715FC002548
:1029A00007E055E00220464901EB45014870681CEC
:1029B000C5B2082DF6DD02204149009001EB44002C
:1029C00000231A46AFF68C71FEF772FC3C4901EB0E
:1029D00044000A21FEF7F8FB01203949009001EB81
:1029E000440000231A46AFF6C071FEF761FC34497B
:1029F00001EB44001E21FEF7E7FB00203049009068
:102A000001EB440000231A46AFF27831FEF750FC88
:102A10002B4901EB44000A21FEF7D6FB284901EBC4
:102A20004400AFF28C31FFF7F6FA254901EB440080
:102A30000A21FEF7C9FB224901EB440021A1FFF75F
:102A4000EAFA1F4901EB44000A21FEF7BDFBE5E06D
:102A50001B4800EB4400407880B9012018490090E1
:102A600001EB440000231A4617A1FEF721FC14498C
:102A700001EB44001E21FEF7A7FBC2E0104800EB6B
:102A8000440040780128F8D100200D49009001EB66
:102A9000440000231A460CA1FEF70AFC084901EB8A
:102AA0004400C821FEF790FB054901EB4400C82112
:102AB000FEF78AFB024901EB4400C82106E0000052
:102AC000BC880020535400004D4F0000FEF77CFBF3
:102AD000FE4901EB4400C821FEF776FBFB4901EB00
:102AE0004400C821FEF770FBF84901EB4400C821FF
:102AF000FEF76AFBF54901EB4400C821FEF764FBD1
:102B0000F24901EB4400C821FEF75EFBEF4901EBFF
:102B10004400C821FEF758FBEC4901EB4400C821F2
:102B2000FEF752FBE94901EB4400C821FEF74CFBDC
:102B3000E64901EB4400C821FEF746FBE34901EBFF
:102B40004400C821FEF740FB0220E04901EB4401AC
:102B50004870DE49009001EB440000231A46DCA1D6
:102B6000FEF7A6FBD94901EB44000A21FEF72CFB36
:102B70000120D649009001EB440000231A46AFF231
:102B8000B801FEF795FBD14901EB44001E21FEF789
:102B90001BFB0020CD49009001EB440000231A46A6
:102BA000AFF21051FEF784FBC84901EB44000A2143
:102BB000FEF70AFBC54901EB4400AFF22451FFF7D1
:102BC0002AFAC24901EB44000A21FEF7FDFA012569
:102BD00014E0BE4800EB45004178BC4A681C02EB9B
:102BE00040004078814203D102201146487003E042
:102BF0000620B649487003E0681CC5B2082DE8DB22
:102C000000BFB24901EB4400AFF24811FFF703FAED
:102C1000AE4901EB44000A21FEF7D6FA002038BD88
:102C20002DE9F04104460D4616461F46A74901EB23
:102C30004400AFF27011FFF7EEF9A44901EB450033
:102C4000AFF28011FFF7E7F9A04901EB4600AFF2C0
:102C50008C11FFF7E0F99D4901EB4700AFF29C11A1
:102C6000FFF7D9F9994901EB44000A21FEF7ACFAC4
:102C7000964901EB45000A21FEF7A6FA934901EBBC
:102C800046000A21FEF7A0FA904901EB47000A210D
:102C9000FEF79AFABDE8F081F8B504460D461646EF
:102CA00000208A49009001EB440000231A46AFF24D
:102CB000E811FEF7FDFA854901EB44001E21FEF7FD
:102CC00083FA01208149009001EB440000231A4659
:102CD00080A1FEF7EDFA7D4901EB44000A21FEF7E1
:102CE00073FA7A4901EB440000231A467AA1009551
:102CF000FEF7DEFA754901EB44000A21FEF764FA9B
:102D0000724901EB440000231A4674A10096FEF7B5
:102D1000CFFA6E4901EB44000A21FEF755FA012073
:102D20006A49009001EB440000231A46AFF2682183
:102D3000FEF7BEFA654901EB44006421FEF744FA50
:102D40000020F8BDF0B585B0044600208DF80800DD
:102D50008DF8090020880090A0788DF80A000025E1
:102D600006E0E01C415D0DF10B004155681CC5B249
:102D70009DF80A00A842F4DC69465948006801F051
:102D800087FB064642F6FF7700BF00BF3146544836
:102D9000006801F015FC012802D0781E071EF4D14E
:102DA000012F03D801204F49087002E000204D494F
:102DB000087005B0F0BD10B50446608821888842CF
:102DC0003DD0208800EB4001201D30F8210040F26A
:102DD0002911884222D1208800EB4001201D00EB00
:102DE0008100C078012810DD208800EB4001201D03
:102DF00000EB8100C078401EC1B2208800EB400289
:102E0000201D00EB8200C1701AE02088401C208049
:102E10002088962814DB0020208011E0218801EB17
:102E20004102211D01EB8200FFF78CFF2088401C2E
:102E300020802088962803DB0020208000E010BD41
:102E400000BFFCE710B52848FFF7B5FF2748FFF79C
:102E5000B2FF2748FFF7AFFF2648FFF7ACFF264831
:102E6000FFF7A9FF2548FFF7A6FF2548FFF7A3FFB7
:102E70002448FFF7A0FF2448FFF79DFF10BD10B5C1
:102E800005F0EEF80121214802F09EFDFFF7DAFF80
:102E900005F0F7F810BD10B504460C4901EB4400ED
:102EA0000123002241F60121FEF74CFB074901EB0B
:102EB00044003221FEF788F9044901EB440014A1D3
:102EC000FFF7A9F8014901EB440023E0BC8800208A
:102ED000554D0000504D00004143000044430000A8
:102EE000280300202C030020504900205C500020C3
:102EF00068570020745E0020806500208C6C0020E4
:102F000098730020A47A0020B081002000140040B3
:102F1000505800001421FEF757F9544901EB4400C2
:102F200000231A4641F60121FEF70CFB4F4901EB45
:102F300044003221FEF748F910BD38B504460D466D
:102F400000204A49009001EB440000231A46AFF2EA
:102F50008841FEF7ADF9454901EB44005A21FEF7DF
:102F600033F9424901EB440000231A46AFF26001F5
:102F70000095FEF79DF93D4901EB44005A21FEF70B
:102F800023F901203949009001EB440000231A463F
:102F9000AFF2CC41FEF78CF9344901EB44005A21E1
:102FA000FEF712F90620314901EB4401487038BDA3
:102FB00010B504460123002241F601212B48FEF7FB
:102FC000C1FA2A4901EB44003221FEF7FDF82749F6
:102FD00001EB440026A1FFF71EF8244901EB440051
:102FE0001421FEF7F1F800231A4641F601211F488B
:102FF000FEF7A8FA1D4901EB44003221FEF7E4F880
:1030000010BD2DE9F04106460D4617460024A046A6
:1030100018480760002017490872487208468572F0
:1030200000BF05E0315D13480B300155601C84B2D0
:10303000AC42F7DB0F49104801F02AFA8046002421
:1030400001E0601C84B241460B4801F0B9FA18B99E
:1030500040F6FF708442F4DB40F6FF70844202DBEE
:103060000120BDE8F0810020FBE70000BC880020C3
:1030700049510000D0880020006800401FB50121A0
:10308000084600F03EFD5320029040F2E730ADF8D4
:1030900004000020ADF80600ADF80C0001A94FF0C7
:1030A000804001F0DCFF01221146900702F078FC1D
:1030B0000121880702F05CF81C208DF80000012037
:1030C0008DF803008DF801008DF80200684600F0CD
:1030D00040F91FBD1FB50121042000F012FD42F28E
:1030E000CF00029041F28730ADF804000020ADF827
:1030F0000600ADF80C0001A97F4801F0B0FF0122E5
:1031000011467D4802F04CFC01217B4802F030F86A
:103110001E208DF8000001208DF803008DF80100BD
:103120008DF80200684600F014F91FBD1FB501219B
:10313000082000F0E6FC42F2CF00029040F6B730E3
:10314000ADF804000020ADF80600ADF80C0001A9B0
:103150006A4801F084FF01221146684802F020FC11
:103160000121664802F004F832208DF800000120A9
:103170008DF803008DF8010000208DF802006846EC
:1031800000F0E7F801215D4802F01EFC01215B48D8
:1031900001F0EEFF00205949243108601FBD1FB522
:1031A0000121102000F0ADFC42F2CF00029041F26C
:1031B0008730ADF804000020ADF80C00ADF8060033
:1031C0008DF80E0001A94E4801F049FF0122114679
:1031D0004B4802F0E5FB36208DF8000003208DF807
:1031E000010001208DF802008DF80300684600F010
:1031F000B0F80121424802F0E7FB0121404801F00C
:10320000B7FF00203E4948621FBD10B504F028FFFB
:103210000121880702F0DBFB0121880702F0E8FBAF
:1032200004F02FFF10BD10B504F01AFF0121324841
:1032300002F0CDFB01282FD13248007B012804D1B8
:1032400030480078401C2F4908702E48007802282A
:1032500002DB00202B4908732A48807B012804D117
:1032600028488078401C27498870264880780328A1
:1032700002DB0020234988732248407B012804D1C7
:1032800020484078401C1F4948701E484078032859
:1032900002DB00201B4948730121174802F0A8FBFC
:1032A00004F0EFFE10BD10B504F0DAFE0121134862
:1032B00002F08DFB012801D11249C87201210F488B
:1032C00002F096FB04F0DDFE10BD10B504F0C8FE60
:1032D00001210B4802F07BFB012801D10949487408
:1032E0000121074802F084FB04F0CBFE10BD00BFB3
:1032F000401E0028FCD1704700080040000C004030
:1033000000100040ACA80020094880470948004749
:10331000FEE7FEE7FEE7FEE7FEE7FEE7FEE7FEE785
:10332000FEE7FEE704480549054A064B70470000E2
:103330006D0400088901000828A9002028AF00209A
:1033400028AB002028AB002032490143324A1160EB
:10335000704770B5002100230F22C4781CB32E4C97
:10336000246804F4E064C4F5E064C4F30721C1F107
:103370000404E3B20A4144789C40E1B284781440EA
:1033800021430C07210E254C05786155047804F083
:103390001F050124AC4005786D11AD0005F1E02555
:1033A000C5F8004109E0047804F01F050124AC4091
:1033B0001B4D0678761145F8264070BD194A0A4023
:1033C0000243154B1B1F1A60704739B1124A121D78
:1033D00012680243104B1B1D1A6006E00E4A121DB4
:1033E000126882430C4B1B1D1A607047042808D1D9
:1033F0004FF0E021096941F004014FF0E022116132
:1034000007E04FF0E021096921F004014FF0E022CC
:10341000116170470000FA050CED00E000E400E0E7
:1034200080E100E080FFFF1F10B504469848844209
:1034300008D10121084600F086FB0021012000F0A0
:1034400082FB76E09348844208D10121022000F0FB
:103450007AFB0021022000F076FB6AE08E4884426D
:1034600008D10121042000F06EFB0021042000F0AF
:103470006AFB5EE08948844208D10121082000F0FF
:1034800062FB0021082000F05EFB52E08448844289
:1034900008D10121102000F056FB0021102000F07F
:1034A00052FB46E07F48844208D10121202000F0F1
:1034B0004AFB0021202000F046FB3AE07A48844293
:1034C00008D10121402000F03EFB0021402000F007
:1034D0003AFB2EE07548844208D10121802000F09B
:1034E00032FB0021802000F02EFB22E07048844255
:1034F00008D10121801500F026FB0021A01500F065
:1035000022FB16E06B48844208D10121401500F0EF
:103510001AFB0021601500F016FB0AE066488442A1
:1035200007D10121001500F00EFB0021201500F04D
:103530000AFB10BDF0B50A4600210023002400BF9D
:103540003DE0012505FA01F3156805EA03049C42F4
:1035500034D105684F000326BE40B5430560157998
:103560004E00B5400668354305601579012D02D03F
:103570001579022D16D185684F000326BE40B5434C
:10358000856055794E00B54086683543856045684D
:1035900001268E40B5434560456896798E40B6B2A7
:1035A00035434560C5684F000326BE40B543C5603E
:1035B000D5794E00B540C6683543C560491C102911
:1035C000BFD3F0BD4FF6FF71016000210171417161
:1035D0008171C171704708B54FF480320092009A32
:1035E0000A430092009AC261C161009AC261C26935
:1035F0000092C269009208BD0246002013690B4088
:103600000BB1012000E0002070470146086980B23C
:1036100070470246002053690B400BB1012000E0C7
:10362000002070470146486980B2704701837047A7
:10363000418370470AB1018300E0418370474161D3
:10364000704742694A4042617047F0B50023002448
:103650004D07ED0E02FA05F3CE1000F1200555F8E6
:1036600026504E07F70E0F26BE40B543CF1000F18F
:10367000200646F82750CE1000F1200555F82650B8
:1036800045EA0304CE1000F1200545F82640F0BDC0
:10369000000002400004024000080240000C02400A
:1036A000001002400014024000180240001C0240BA
:1036B000002002400024024000280240F94800682F
:1036C00040F00100F74908600020F6490831086021
:1036D000F4480068F4490840F2490860F348091DBD
:1036E0000860F348EF4984310860F0481038091D3C
:1036F0000860EC48006820F48020EA490860002057
:10370000E8490C310860E7498C31086070470021B6
:10371000E44A921C117011460870704710B50146BA
:103720000022002300204A11012A02D1DD4C236827
:1037300008E0022A03D1DB4C7034236802E0D94C44
:103740007434236801F01F02012494401C400CB122
:10375000012000E0002010BD38B5002000900024BA
:10376000002500BF3120FFF7D9FF05460098401C17
:1037700000900098B0F5A04F01D0002DF2D031207C
:10378000FFF7CCFF08B1012400E00024204638BD3B
:1037900001460020C34A106820F0F80040EAC1004A
:1037A00010607047C349086070470021BD4A7032FD
:1037B00011701170012802D004280AD104E00121FF
:1037C000B84A7032117005E00521B64A70321170A6
:1037D00000E000BF00BF7047B7490860704770B590
:1037E000049C41EA82150126C6EB530645EA0645CC
:1037F000054345EA0465AB4E361D356070BDAD49E5
:1038000008667047820142EA0172A64B84331A604F
:103810007047A8498866704710B5830143EA016381
:1038200043EA02739F4C8834236010BDA1490867A6
:103830007047A049C864704702460020994B08337E
:10384000186820F0EC6042EA01031843954B0833F6
:103850001860704702460020924B0833186820F029
:10386000784042EA010318438E4B083318607047D2
:10387000014600208B4A0832106820F003000843FC
:103880001060704787480830006800F00C007047EF
:1038900001460020834A0832106820F0F0000843F7
:1038A00010607047014600207E4A0832106820F4FC
:1038B000E05008431060704701460020794A083202
:1038C000106820F4604040EAC10010607047F0B515
:1038D000002100220024022500260223714F083710
:1038E0003F6807F00C0121B1042905D0082937D120
:1038F00005E0724F076036E0714F076033E0694FB3
:103900003F1D3F68C7F38056664F3F1D3F6807F075
:103910003F036EB16A4FB7FBF3F7DFF888C10CF1D4
:10392000040CDCF800C0CCF3881C07FB0CF40CE0A2
:10393000624FB7FBF3F7DFF86CC10CF1040CDCF855
:1039400000C0CCF3881C07FB0CF4564F3F1D3F68AA
:10395000C7F301477F1C7D00B4FBF5F7076002E069
:10396000564F076000BF00BF4E4F08373F6807F053
:10397000F0010909534F7A5C0768D7404760494F07
:1039800008373F6807F4E051890A4E4F7A5C476870
:10399000D7408760434F08373F6807F46041490BC1
:1039A000484F7A5C4768D740C760F0BD002100F4FB
:1039B0004072B2F5407F0AD13A4A0832116821F4C8
:1039C000F811414A02401143364A08321160354A23
:1039D00070321268C0F30B031A43324B70331A6013
:1039E00070473549443908607047334940390860A9
:1039F000704736490860704701460020294A8C32DA
:103A0000106820F01F004A1E1043264A8C321060B6
:103A1000704701460020234A8C32106820F4F85089
:103A20004A1E40EA02201F4A8C321060704701464D
:103A300000201C4A8C32106820F4401008431060AB
:103A4000704701460020174A8C32106820F440006D
:103A500008431060704701460020124A8C321068FB
:103A600020F44030084310607047194908607047DF
:103A700039B10C4A3032126802430A4B30331A60B3
:103A800006E0084A303212688243064B30331A602F
:103A90007047F9B1034A343212680243014B3433A0
:103AA0001A601CE000380240FFFFF6EA10300024E4
:103AB0000030002000004742800E47420024F400FE
:103AC00000127A0034030020FFFCFF0F5C01474224
:103AD000E01147428F4A126882438E4B1A6070474A
:103AE00039B18C4A121D126802438A4B1B1D1A60A1
:103AF00006E0884A121D12688243864B1B1D1A601D
:103B0000704739B1834A0C3212680243814B0C333F
:103B10001A6006E07F4A0C32126882437D4B0C33F8
:103B20001A60704739B17B4A103212680243794BF0
:103B300010331A6006E0774A103212688243754BE0
:103B400010331A60704739B1724A243A126802433E
:103B5000704B243B1A6006E06E4A243A1268824396
:103B60006C4B243B1A60704739B16A4A203A12689C
:103B70000243684B203B1A6006E0664A203A12680E
:103B80008243644B203B1A60704739B1614A1C3A4A
:103B9000126802435F4B1C3B1A6006E05D4A1C3A08
:103BA000126882435B4B1C3B1A60704739B1594A1B
:103BB000143A12680243574B143B1A6006E0554A08
:103BC000143A12688243534B143B1A60704739B160
:103BD000504A103A126802434E4B103B1A6006E0FE
:103BE0004C4A103A126882434A4B103B1A607047A5
:103BF00039B1484A1C3212680243464B1C331A60E2
:103C000006E0444A1C3212688243424B1C331A605D
:103C1000704739B13F4A2032126802433D4B20338E
:103C20001A6006E03B4A203212688243394B203347
:103C30001A60704739B1374A243212680243354B53
:103C400024331A6006E0334A243212688243314B2F
:103C500024331A60704739B12E4A2C32126802435D
:103C60002C4B2C331A6006E02A4A2C32126882430D
:103C7000284B2C331A60704739B1264A303212680B
:103C80000243244B30331A6006E0224A3032126875
:103C90008243204B30331A607047012808D11D49F8
:103CA0003C31096841F008011A4A3C32116007E0D2
:103CB00018493C31096821F00801164A3C3211606C
:103CC000704739B1134A273A12780243114B273B08
:103CD0001A7006E00F4A273A127882430D4B273BB1
:103CE0001A7070470B484030006840F080700949F6
:103CF00040310860704701460020064A283A1268A1
:103D00000A400AB1012000E000207047014926392D
:103D1000087070473438024010B50446FA488442AF
:103D200008D101211020FFF752FF00211020FFF7DA
:103D30004EFF57E0F548844209D101214804FFF7BE
:103D400035FF00214FF40030FFF730FF4AE0F04824
:103D5000844209D101218804FFF728FF00214FF494
:103D60008020FFF723FF3DE0EA48844209D101218A
:103D7000C804FFF71BFF00214FF40020FFF716FFD8
:103D800030E0E548844209D101210805FFF70EFF24
:103D900000214FF48010FFF709FF23E0DF48844241
:103DA00008D101212020FFF712FF00212020FFF77A
:103DB0000EFF17E0DA48844209D101218807FFF796
:103DC000F5FE00214FF08040FFF7F0FE0AE0D548F5
:103DD000844207D101214005FFF7E8FE002160057C
:103DE000FFF7E4FE10BD2DE9FF4705460E4600240F
:103DF000A14600BFA046B08900B100BF2C8A24F4C0
:103E00004054F08804432C82AC8941F20C60844316
:103E1000B08831890843718908430443AC81AC8A76
:103E200024F44074B0890443AC826846FFF74FFD28
:103E3000B548854202D0B948854202D1DDF80C90E0
:103E400001E0DDF80890A88900F4004040B109EBDA
:103E5000C90000EB091031684900B0FBF1F707E039
:103E600009EBC90000EB091031688900B0FBF1F7DC
:103E70006420B7FBF0F004012009642101FB1078F5
:103E8000A88900F4004040B1322000EBC800B0FB2C
:103E9000F1F000F00700044308E0322000EB0810C6
:103EA0006421B0FBF1F000F00F0004432C81BDE869
:103EB000FF874FF41651016000218180C18001818C
:103EC0000C21418100218181704710B502460020FC
:103ED000108A20F470600B884C8823438C8823431D
:103EE000CC8823431843108210BD002101804180FB
:103EF0008180C180704721B1828942F40052828161
:103F000004E082894DF6FF731A4082817047028B6C
:103F100002F47F420283028B0A430283704721B17D
:103F2000828942F40042828103E08289C2F30E0258
:103F30008281704721B1828A42F40062828204E069
:103F4000828A4FF2FF731A4082827047C1F30802DF
:103F50008280704701468888C0F308007047028A53
:103F60004FF6F0731A400282028A0A4302827047B7
:103F700021B1828942F00202828104E082894FF6F7
:103F8000FD731A408281704782894FF2FF731A4095
:103F9000828182890A4382817047028A4FF6DF73E9
:103FA0001A400282028A0A430282704721B1028AC1
:103FB00042F48042028204E0028A4BF6FF731A4008
:103FC00002827047818941F001018181704721B1EE
:103FD000828A42F00802828204E0828A4FF6F773F6
:103FE0001A4082827047028BD2B20283028B42EA6D
:103FF00001220283704721B1828A42F0200282822C
:1040000004E0828A4FF6DF731A408282704721B142
:10401000828A42F01002828204E0828A4FF6EF73B5
:104020001A4082827047828A4FF6FB731A4082825E
:10403000828A0A438282704721B1828A42F0020258
:10404000828204E0828A4FF6FD731A4082827047B2
:104050001AB1838A0B43838202E0838A8B43838273
:104060007047F0B50346002400260025002040F6E6
:104070006A17B94200D100BF1846C1F3421401F0DB
:104080001F06012707FA06F5012C01D10C3004E0C8
:10409000022C01D1103000E014301AB107682F4310
:1040A000076002E00768AF430760F0BD02460020EA
:1040B000B1F5007F00D100BF13880B400BB1012088
:1040C00000E00020704701F40072B2F5007F00D1DB
:1040D00000BFCA430280704770B502460024002327
:1040E0000025002040F66A16B14200D100BFC1F39E
:1040F000421501F01F03012606FA03F3012D13D127
:104100009689334017E00000001001400044004051
:1041100000480040004C00400050004000140140A6
:1041200000780040007C0040022D02D1168A334006
:1041300001E0968A33400C12012606FA04F4168830
:10414000344013B10CB1012000E0002070BD10B567
:104150000022002340F66A14A14200D100BF0A12D7
:1041600001249440A3B2DC43048010BD10B5044682
:10417000FE48844209D101214806FFF717FD0021BE
:104180004FF00070FFF712FD08E001218806FFF7ED
:104190000DFD00214FF08060FFF708FD10BD30B528
:1041A000024600200023146824F0020414601468FE
:1041B00044F00104146000E05B1C546804F0010446
:1041C0001CB94FF6FF74A342F6D1546804F0010401
:1041D0000CB900206CE08C79012C04D1146844F0F7
:1041E0008004146003E0146824F080041460CC7927
:1041F000012C04D1146844F04004146003E01468F6
:1042000024F0400414600C7A012C04D1146844F0AA
:104210002004146003E0146824F0200414604C7A35
:10422000012C04D1146844F01004146003E01468F5
:1042300024F0100414608C7A012C04D1146844F02A
:104240000804146003E0146824F008041460CC7AB5
:10425000012C04D1146844F00404146003E01468D1
:1042600024F0040414608C78A407CD7844EA056433
:104270000D7944EA05444D7944EA05540D886D1ED4
:104280002C43D461146824F001041460002300E07E
:104290005B1C546804F001041CB14FF6FF74A34288
:1042A000F6D1546804F001040CB1002000E00120B4
:1042B00030BD10B50021837A012202FA03F1AC4A25
:1042C000126842F00102AA4B1A60A94A1C32126815
:1042D0008A43A74B1C331A60027BCAB9A44A0C322A
:1042E00012688A43A24B0C331A604288C38842EAA0
:1042F00003439F4A4032847A42F8343002888388EC
:1043000042EA03439A4A4032847A02EBC402536081
:10431000027B012A19D1964A0C3212680A43944B47
:104320000C331A604288038842EA0343904A4032C1
:10433000847A42F83430C288838842EA03438C4A44
:104340004032847A02EBC4025360C27A3AB9884A96
:10435000121D12688A43864B1B1D1A6006E0844AB0
:10436000121D12680A43824B1B1D1A60028932B962
:104370007F4A143212688A437D4B14331A600289D3
:10438000012A06D17A4A143212680A43784B143350
:104390001A60427B012A06D1754A1C3212680A4310
:1043A000734B1C331A60724A126822F00102704B80
:1043B0001A6010BD00218171C17101724172817258
:1043C000C1728170C170032101710221417101210B
:1043D000018070476649096841F00101644A116033
:1043E0001146096843F60E729143614A1160114605
:1043F000096841EA002111601146096821F00101B4
:104400001160704721B1026842F48032026003E01B
:10441000026822F4803202607047E1B1026842F023
:10442000800202604FF4C272125842F480734FF45B
:10443000C27213504FF4CA72125842F480734FF490
:10444000CA7213504FF4D272125842F480734FF470
:10445000D27213501BE0026822F0800202604FF417
:10446000C272125822F480734FF4C27213504FF488
:10447000CA72125822F480734FF4CA7213504FF468
:10448000D272125822F480734FF4D27213507047D4
:1044900010B502460020936803F08063B3F1806F8B
:1044A00000D110E0936803F00063B3F1006F01D115
:1044B000012008E0936803F08053B3F1805F01D1DD
:1044C000022000E00420042879D002F5C07303EB39
:1044D00000131B6803F0010402F5C07303EB001323
:1044E0001C600B7A7BB94B7A0C8843EA445302F583
:1044F000C07404EB00142468234302F5C07404EB79
:104500000014236010E00B7A4C6843EAC4034C7A31
:10451000234302F5C07404EB00142468234302F51E
:10452000C07404EB001423608B7A03F00F038B72CA
:1045300002F5C07303EB00135B6823F00F0402F570
:10454000C07303EB00135C6002F5C07303EB001350
:104550005B688C7A234302F5C07404EB001463603B
:104560008B7B1C064B7B44EA034403E00064004061
:10457000006600400B7B44EA0323CC7A234302F518
:10458000C07404EB0014A3608B7C1C064B7C44EAD3
:1045900003440B7C44EA0323CC7B234302F5C07421
:1045A00004EB0014E36002F5C07303EB00131B6817
:1045B00043F0010402F5C07303EB00131C6010BD4F
:1045C00010B50246002321B1012907D002290FD1DD
:1045D00009E09068F94C00EA04030BE09068F84C9D
:1045E00000EA040306E09068F64C00EA040301E0E8
:1045F000002300BF00BFF44C181BA34216D007DCF9
:1046000083B16FF08060184470B1022818D111E0B6
:10461000B0F5007F10D0ED4C204448B1B0F5003F1C
:104620000ED10BE002230DE000230BE0002309E094
:10463000002307E0012305E0012303E0012301E05B
:10464000002300BF00BFD8B210BD21B1012907D09F
:1046500002290FD109E0826842F0800282600AE0FC
:10466000826842F40042826005E0826842F40002FF
:10467000826000E000BF00BF704710B500F5D8733E
:1046800003EB01131B6803F004031372137A53B98D
:1046900000F5D87303EB01131B6840F2FF7404EAC2
:1046A0005353136009E000F5D87303EB01131B6843
:1046B0006FF0604404EAD303536000F5D87303EB52
:1046C00001131B6803F00203537200F5D87303EB68
:1046D00001135B6803F00F03937200F5D87303EBCB
:1046E00001135B681B0AD37400F5D87303EB011345
:1046F0009B68D37200F5D87303EB01139B681C0A07
:10470000147300F5D87303EB01139B681C0C5473EE
:1047100000F5D87303EB01139B681B0E937300F530
:10472000D87303EB0113DB68D37300F5D87303EB85
:104730000113DB681C0A147400F5D87303EB011332
:10474000DB681C0C547400F5D87303EB0113DB68B1
:104750001B0E937421B9C36843F02003C36003E0C8
:10476000036943F02003036110BD21B9C26842F020
:104770002002C26003E0026942F020020261704739
:104780000246002019B9D36803F0030006E00129AE
:1047900003D1136903F0030000E00020704710B557
:1047A00002460B4600204FF6FF71BBB9146824F097
:1047B000020444F00104146000E0491E546804F04F
:1047C0000304012C01D00029F7D1546804F003043C
:1047D000012C01D0002032E0012030E0012B13D168
:1047E000146824F00304146000E0491E546804F0C7
:1047F00003040CB10029F8D1546804F003040CB18F
:1048000000201CE001201AE0022B17D1146824F0CC
:10481000010444F00204146000E0491E546804F0EE
:104820000304022C01D00029F7D1546804F00304DA
:10483000022C01D0002002E0012000E0002010BD89
:10484000014600200A6822F0010242F002020A60DA
:104850004A6802F00302022A00D101207047014693
:104860004FF6FF7200200B6823F002030B6000E09C
:10487000521E4B6803F00203022B01D1002AF7D12C
:104880004B6803F00203022B00D001207047014661
:1048900000208A6902F070007047014600208A6992
:1048A000100E7047014600208A69C2F30740704726
:1048B0001AB143690B43436102E043698B4343618F
:1048C000704710B50246002001F4700343B19369AC
:1048D000C1F3130423400BB101202DE000202BE095
:1048E00001F0807343B15368C1F3130423400BB14B
:1048F000012021E000201FE001F0006343B1936834
:10490000C1F3130423400BB1012015E0002013E094
:1049100001F0007343B1D368C1F3130423400BB11A
:10492000012009E0002007E01369C1F313042340CC
:104930000BB1012000E0002010BD0022244B994261
:1049400002D10023836111E0C1F3130201F000736F
:104950000BB1C2600AE001F080630BB1026105E0B7
:1049600001F000630BB1826000E0426070470246D4
:10497000002002EA01030BB1012000E00020704793
:1049800070B504460D46002660692840002872D0A4
:10499000B5F5807F69D01DDC082D42D006DC012DE5
:1049A0002DD0022D31D0042D7FD134E0102D3ED0FA
:1049B000202D42D0402D78D145E0000003000004B6
:1049C0000003000800000310000100080001FFF7C9
:1049D0007000F030B5F5004F61D009DCB5F5007F0F
:1049E0004AD0B5F5806F4DD0B5F5006F5DD150E080
:1049F000B5F5803F2DD0B5F5003F56D12FE0A0682A
:104A00005549FFF7B4FF064651E0E0680321FFF780
:104A1000AEFF06464BE0E0680821FFF7A8FF064618
:104A200045E0E0681021FFF7A2FF06463FE020695D
:104A30000321FFF79CFF064639E020690821FFF7B4
:104A400096FF064633E020691021FFF790FF0646E7
:104A50002DE060680821FFF78AFF064627E06068BE
:104A60001021FFF784FF064621E0A0690121FFF72E
:104A70007EFF06461BE01BE0A0690221FFF777FFDF
:104A8000064614E0A0690421FFF771FF06460EE018
:104A90000BE0A0697021FFF76AFF064607E0606837
:104AA0000421FFF764FF064601E0002600BF00E096
:104AB0000026304670BDB1F5007F3AD00FDC2029CA
:104AC00028D006DC01291CD004291DD0082940D19A
:104AD0001DE0402921D0B1F5807F3AD126E0B1F523
:104AE000004F31D006DCB1F5806F25D0B1F5006FF5
:104AF0002FD124E0B1F5803F12D0B1F5003F28D18D
:104B000011E0154A826025E00822C26022E01022EE
:104B1000C2601FE0082202611CE01022026119E05D
:104B20000822426016E01022426013E00422426034
:104B300010E0042242600DE0042242600AE00022FC
:104B400082610422426005E0002282610422426008
:104B500000E000BF00BF704701010100016821F0C3
:104B6000010101600021016041608160C16001615B
:104B700021214161DB49884204D13D21D94A103AC3
:104B800091608CE0D7491831884205D14FF47461A7
:104B9000D44A103A916082E0D2493031884205D13E
:104BA0004FF47411CF4A103A916078E0CD49483102
:104BB000884205D14FF07461CA4A103A91606EE0A4
:104BC000C8496031884204D1C749C64A103AD16009
:104BD00065E0C4497831884204D1C449C14A103AD9
:104BE000D1605CE0BF499031884204D1C049BD4AE0
:104BF000103AD16053E0BB49A831884205D14FF04B
:104C00003D51B84A103AD16049E0BA49884204D1CE
:104C10003D21B84A083A116041E0B649183188424E
:104C200005D14FF47461B34A083A116037E0B149D5
:104C30003031884205D14FF47411AE4A083A116000
:104C40002DE0AC494831884205D14FF07461A94A42
:104C5000083A116023E0A7496031884204D1A24993
:104C6000A44A121F11601AE0A2497831884204D187
:104C70009E49A04A121F116011E09E49903188425E
:104C800004D19B499B4A121F116008E09949A83141
:104C9000884204D14FF03D51964A121F116070476F
:104CA00010B500220268944B1A40CC680B6823436D
:104CB0004C6923438C692343CC6923430C6A234307
:104CC0004C6A23438C6A23434C6B23438C6B2343F2
:104CD0001A430260426922F00702D1E90B342343F0
:104CE0001A4342610B6943604B6883608B68C36001
:104CF00010BD0021016041608160C16001614161BE
:104D00008161C161016241628162C162016341638B
:104D10008163704721B1026842F00102026003E042
:104D2000026822F001020260704721B1026842F479
:104D30000042026003E0026822F400420260704711
:104D400021B1026842F02002026003E0026822F012
:104D5000200202607047416070470146486880B297
:104D6000704722B1036843F40023036003E0036843
:104D700023F4002303600161704721B1026842F40B
:104D80008022026003E0026822F480220260704701
:104D90000AB1016100E0C1607047014600200A6865
:104DA00002F400220AB1012000E000207047014611
:104DB00000200A6802F001020AB1012000E0002090
:104DC0007047014600204A6902F03800704730B54C
:104DD00003460A4600200024464DAB4202D2414918
:104DE000103901E04349103902F000550DB14C680B
:104DF00000E00C68414D2C4004EA02050DB1012091
:104E000000E0002030BD02463A4B9A4202D23548BB
:104E1000103801E03748103801F000531BB1374B10
:104E20000B40C36002E0354B0B408360704710B508
:104E300001F080034BB122B1436943F08003436129
:104E400003E0436923F08003436180290BD02AB13A
:104E5000036801F01E042343036004E0036801F0CB
:104E60001E04A343036010BD70B502460020002459
:104E70000025204EB24202D21A4B103B01E01D4BDE
:104E8000103B1F4E0E4036B11E2606EAD12416688E
:104E900006EA040502E0566906F0800501F00056B6
:104EA0000EB15C6800E01C68144E344004EA010650
:104EB00016B10DB1012000E0002070BD02460D4B7F
:104EC0009A4202D20748103801E00A48103801F02F
:104ED00000531BB1094B0B40C36002E0074B0B4072
:104EE00083607047106002403D000020400F0020AA
:104EF00000003D20106402403F801CF07D0F7D0FBC
:104F00003C0F3C0F10B50446FE48844208D10121F5
:104F10000846FEF75CFE00210120FEF758FE9DE0EA
:104F2000B4F1804F08D101210846FEF73FFE002171
:104F30000120FEF73BFE91E0F348844208D10121B5
:104F40000220FEF733FE00210220FEF72FFE85E04F
:104F5000EE48844208D101210420FEF727FE0021FB
:104F60000420FEF723FE79E0E948844208D10121BC
:104F70000820FEF71BFE00210820FEF717FE6DE05B
:104F8000E448844208D101211020FEF70FFE0021E1
:104F90001020FEF70BFE61E0DF48844208D10121BA
:104FA0002020FEF703FE00212020FEF7FFFD55E044
:104FB000DA48844208D101210220FEF708FE0021D0
:104FC0000220FEF704FE49E0D548844209D10121C0
:104FD0000804FEF7FCFD00214FF48030FEF7F7FDDA
:104FE0003CE0D048844209D101214804FEF7EFFD9E
:104FF00000214FF40030FEF7EAFD2FE0CA4884425A
:1050000009D101218804FEF7E2FD00214FF4802040
:10501000FEF7DDFD22E0C548844208D10121402091
:10502000FEF7C4FD00214020FEF7C0FD16E0C04899
:10503000844208D101218020FEF7B8FD00218020A4
:10504000FEF7B4FD0AE0BB48844207D10121801578
:10505000FEF7ACFD0021A015FEF7A8FD10BD002253
:105060000288A84B98420ED0AC4B98420BD0B0F1BE
:10507000804F08D0A44B984205D0A44B984202D050
:10508000A34B984204D14FF68F731A404B881A43B2
:10509000A04B984207D0A04B984204D04FF6FF4354
:1050A0001A400B891A4302804B68C3620B88038540
:1050B000944B984202D0994B984201D18B7A038647
:1050C0000123838270474FF0FF314160002101804E
:1050D00001814180817270470185828270470A4652
:1050E000002101884FF68F731940114301807047EA
:1050F00041627047C16270470146486A7047014685
:10510000088D704721B1028842F00202028004E05B
:1051100002884FF6FD731A400280704721B1028861
:1051200042F00402028004E002884FF6FB731A404A
:105130000280704721B1028842F08002028004E0C0
:1051400002884FF67F731A400280704702884FF63C
:10515000F7731A40028002880A430280704702886F
:105160004FF6FF431A40028002880A4302807047CC
:1051700021B1028842F00102028004E002884FF669
:10518000FE731A400280704770B50024002200238D
:10519000058C4FF6FE7635400584028C8388048B9F
:1051A0004FF68F752C40B51E2C400D882C43751E74
:1051B0002A408D892A434D882A43524DA84202D065
:1051C000564DA84213D14FF6F7752A40CD892A4390
:1051D0004FF6FB752A408D882A434FF6FF652B401A
:1051E0004FF6FF552B400D8A2B434D8A2B4383806E
:1051F00004838D684563028470BD70B5002400226D
:105200000023058C4FF6EF7635400584028C8388A9
:10521000048B48F6FF752C404FF6FF452C400D8857
:105220004FF6FF7606EA05252C434FF6DF752A4038
:105230008D8906EA05152A434D8806EA05152A4395
:10524000304DA84202D0354DA8421DD14FF67F7592
:105250002A40CD894FF6FF7606EA05152A434FF618
:10526000BF752A408D8806EA05152A434FF6FF359B
:105270002B404FF2FF752B400D8A06EA85052B4324
:105280004D8A06EA85052B43838004838D688563F8
:10529000028470BD70B5002400220023058C4FF6F7
:1052A000FF6635400584028C8388848B4FF68F75AA
:1052B0002C404FF6FC752C400D882C434FF6FF55C3
:1052C0002A408D894FF6FF7606EA05252A434D8848
:1052D00006EA05252A430B4DA84202D00F4DA842ED
:1052E00038D14FF2FF752A40CD894FF6FF7606EA96
:1052F00005252A434FF6FF352A408D8806EA052505
:105300002A4319E00000014000040040000800406A
:10531000000C004000100040001400400004014058
:105320000040014000440140004801400018004096
:10533000001C0040002000404EF6FF752B404DF64B
:10534000FF752B400D8A06EA05152B434D8A06EAA8
:1053500005152B43838084838D68C563028470BDEB
:1053600070B5002200230024058C4EF6FF763540F0
:105370000584038C8488828B48F6FF752A404FF69B
:10538000FF452A400D884FF6FF7606EA05252A4399
:105390004DF6FF752B408D8906EA05352B434D8868
:1053A00006EA05352B43FE4DA84202D0FD4DA8422A
:1053B00008D14BF6FF752C400D8A4FF6FF7606EAB2
:1053C00085152C43848082838D680564038470BDB9
:1053D000002101804180818081608181C1810182C1
:1053E0004182704770B503460020002418461830EB
:1053F00001258D40ACB21D8CA5431D8409B108293F
:105400000AD100EB610005684FF68F7635400560E4
:105410000568154305600FE00D1FC5F34E052844D0
:10542000056848F6FF763540056005684FF6FF765B
:1054300006EA02263543056070BD4163704781630B
:105440007047C1637047016470470A460021018BB1
:105450004FF68F7319401143018370470A460021AC
:10546000018B48F6FF7319404FF6FF7303EA0223DE
:105470001943018370470A460021818B4FF68F73D1
:1054800019401143818370470A460021818B48F6F9
:10549000FF7319404FF6FF7303EA02231943818318
:1054A00070470A460021018B4FF6F77319401143EC
:1054B000018370470A460021018B4FF2FF731940A8
:1054C0004FF6FF7303EA02231943018370470A462C
:1054D0000021818B4FF6F773194011438183704788
:1054E0000A460021818B4FF2FF7319404FF6FF737C
:1054F00003EA02231943818370470A460021018B86
:105500004FF6FB7319401143018370470A4600218F
:10551000018B4FF6FF3319404FF6FF7303EA022366
:105520001943018370470A460021818B4FF6FB73B4
:1055300019401143818370470A460021818B4FF641
:10554000FF3319404FF6FF7303EA022319438183A7
:1055500070470A460021018B4FF67F7319401143B3
:10556000018370470A460021018BC1F30E014FF6FB
:10557000FF7303EA02231943018370470A4600219F
:10558000818B4FF67F7319401143818370470A4620
:105590000021818BC1F30E014FF6FF7303EA022352
:1055A0001943818370470A460021018C4FF6FD7331
:1055B00019401143018470470A460021018C4FF6BF
:1055C000F77319401143018470470A460021018C8A
:1055D0004FF6DF7319404FF6FF7303EA02131943C6
:1055E000018470470A460021018C4FF67F731940F1
:1055F0004FF6FF7303EA02131943018470470A460A
:105600000021018C4FF6FF5319404FF6FF7303EA58
:1056100002231943018470470A460021018C4FF28E
:10562000FF7319404FF6FF7303EA02231943018405
:1056300070470A460021018C4DF6FF7319404FF662
:10564000FF7303EA023319430184704730B5002326
:1056500001248C40A3B2048C9C430484048C02FA81
:1056600001F5ADB22C43048430BD30B500230424D1
:105670008C40A3B2048C9C430484048C02FA01F590
:10568000ADB22C43048430BD828B4FF2FF331A40FD
:105690008283828B4FF6FF7303EA01231A438283CE
:1056A0007047F0B50C461546002100220026078CF5
:1056B0004EF6FF7C07EA0C070784818B028C4FF6BD
:1056C000FF7707EA043640F6FF4739404FF6FF7789
:1056D00007EA052739434FF6FF7707EA03373943CF
:1056E00045F6FF773A4046F480573A438183028477
:1056F000F0BD828B4FF6F3731A408283828B0A438C
:1057000082837047F0B50C46154600210022002622
:10571000078C4FF6FF6C07EA0C070784818B028C1D
:105720004FF6FF7707EA04264FF60C7739404FF61D
:10573000FF7707EA03172F4339434FF2FF573A40E9
:1057400046F480773A4381830284F0BD028B4FF2A6
:10575000FF331A400283028B4FF6FF7303EA0123E3
:105760001A4302837047F0B50C461546002100220B
:105770000026078C4FF6EF7C07EA0C070784018BA5
:10578000028C4FF6FF7707EA041640F6FF473940D0
:105790004FF6FF7707EA033739434FF6FF7703E009
:1057A000000001400004014007EA052739434FF695
:1057B0005F773A4046F010073A4301830284F0BD18
:1057C000028B4FF6F3731A400283028B0A43028363
:1057D0007047F0B50C46154600210022068C4FF6A6
:1057E000FE773E400684018B028C4FF60C763140EA
:1057F0007E1C06EA03162E4331434FF6F5763240FF
:1058000044F00106324301830284F0BD70B50546C1
:105810000C46208850B92389A28861882846FFF762
:10582000D8FFE1882846FFF7CBFF25E02088042831
:105830000AD12389A28861882846FFF794FFE1886E
:105840002846FFF783FF17E0208808280AD123891C
:10585000A28861882846FFF755FFE1882846FFF7B0
:1058600048FF09E02389A28861882846FFF719FFCD
:10587000E1882846FFF708FF70BD002101804180C4
:10588000012181800021C180018170472DE9F04113
:1058900005460C4600260127608808B9022600E06C
:1058A0000026A088012801D1022700E001272088D6
:1058B000A0B92389A28861882846FFF78AFFE1887A
:1058C0002846FFF77DFF23893A4631462846FFF7F1
:1058D0004AFFE1882846FFF739FF13E02389A288B1
:1058E00061882846FFF73FFFE1882846FFF72EFF33
:1058F00023893A4631462846FFF76BFFE188284660
:10590000FFF75EFFBDE8F0810146486B7047014636
:10591000886B70470146C86B70470146086C70473A
:105920000A884B881A438B881A43CB881A430B8901
:105930001A434B891A438B891A43A0F844207047B5
:105940000021018041808180C1800181418181816C
:10595000704731B1B0F8442042F40042A0F844202E
:1059600005E0B0F84420C2F30E02A0F844207047CE
:1059700021B1828842F00402828004E082884FF6DE
:10598000FB731A408280704721B1828842F0010285
:10599000828004E082884FF6FE731A40828070474E
:1059A0001AB183890B43838102E083898B4383810E
:1059B00070478182704702460020138A0B400BB16A
:1059C000012000E000207047CA430282704730B5D2
:1059D0000246002000230024158A05EA0103958968
:1059E00005EA010413B10CB1012000E0002030BD34
:1059F000CA430282704741EA0203A0F84830704768
:105A00001AB183890B43838102E083898B438381AD
:105A1000704721B1828842F00802828004E08288C7
:105A20004FF6F7731A408280704701894FF6F8727B
:105A30001140018170470A46002101894FF68F739A
:105A4000194011430181704730B504460D4629467F
:105A50002046FFF7F0FF208940F00700208130BD8D
:105A60002DE9F04104460D4616461F46602D06D12D
:105A70003B46012231462046FFF775FE05E03B46D6
:105A8000012231462046FFF7A4FE29462046FFF7B3
:105A9000D2FF208940F007002081BDE8F08130B5B9
:105AA0000C4600210189C9B24FF6FF7505EA0325AE
:105AB000154325432943018130BD2DE9F0410546B9
:105AC0000E4617469846002443463A463146284635
:105AD000FFF7E5FF2C894FF6F870044044F0070407
